{
  "_format": "hh-sol-artifact-1",
  "contractName": "PaymentGateway",
  "sourceName": "contracts/PaymentGateway.sol",
  "abi": [
    {
      "inputs": [
        {
          "internalType": "address",
          "name": "_hotWallet",
          "type": "address"
        },
        {
          "internalType": "address",
          "name": "_tokenTransfererImpl",
          "type": "address"
        }
      ],
      "stateMutability": "nonpayable",
      "type": "constructor"
    },
    {
      "anonymous": false,
      "inputs": [
        {
          "indexed": true,
          "internalType": "address",
          "name": "newHotWallet",
          "type": "address"
        }
      ],
      "name": "HotWalletUpdated",
      "type": "event"
    },
    {
      "anonymous": false,
      "inputs": [
        {
          "indexed": true,
          "internalType": "string",
          "name": "userId",
          "type": "string"
        },
        {
          "indexed": true,
          "internalType": "address",
          "name": "paymentAddress",
          "type": "address"
        }
      ],
      "name": "PaymentAddressCreated",
      "type": "event"
    },
    {
      "anonymous": false,
      "inputs": [
        {
          "indexed": true,
          "internalType": "address",
          "name": "newImplementation",
          "type": "address"
        }
      ],
      "name": "TokenTransfererUpdated",
      "type": "event"
    },
    {
      "anonymous": false,
      "inputs": [
        {
          "indexed": true,
          "internalType": "address",
          "name": "from",
          "type": "address"
        },
        {
          "indexed": true,
          "internalType": "address",
          "name": "to",
          "type": "address"
        },
        {
          "indexed": true,
          "internalType": "address",
          "name": "token",
          "type": "address"
        },
        {
          "indexed": false,
          "internalType": "uint256",
          "name": "amount",
          "type": "uint256"
        }
      ],
      "name": "TokensCollected",
      "type": "event"
    },
    {
      "inputs": [
        {
          "internalType": "address",
          "name": "",
          "type": "address"
        }
      ],
      "name": "addressToUserId",
      "outputs": [
        {
          "internalType": "string",
          "name": "",
          "type": "string"
        }
      ],
      "stateMutability": "view",
      "type": "function"
    },
    {
      "inputs": [
        {
          "internalType": "string",
          "name": "userId",
          "type": "string"
        }
      ],
      "name": "getUserAddresses",
      "outputs": [
        {
          "internalType": "address[]",
          "name": "",
          "type": "address[]"
        }
      ],
      "stateMutability": "view",
      "type": "function"
    },
    {
      "inputs": [],
      "name": "hotWallet",
      "outputs": [
        {
          "internalType": "address",
          "name": "",
          "type": "address"
        }
      ],
      "stateMutability": "view",
      "type": "function"
    },
    {
      "inputs": [],
      "name": "owner",
      "outputs": [
        {
          "internalType": "address",
          "name": "",
          "type": "address"
        }
      ],
      "stateMutability": "view",
      "type": "function"
    },
    {
      "inputs": [
        {
          "internalType": "string",
          "name": "userId",
          "type": "string"
        },
        {
          "internalType": "address",
          "name": "paymentAddress",
          "type": "address"
        }
      ],
      "name": "registerPaymentAddress",
      "outputs": [],
      "stateMutability": "nonpayable",
      "type": "function"
    },
    {
      "inputs": [
        {
          "internalType": "address",
          "name": "_newHotWallet",
          "type": "address"
        }
      ],
      "name": "setHotWallet",
      "outputs": [],
      "stateMutability": "nonpayable",
      "type": "function"
    },
    {
      "inputs": [
        {
          "internalType": "address",
          "name": "_newImplementation",
          "type": "address"
        }
      ],
      "name": "setTokenTransfererImpl",
      "outputs": [],
      "stateMutability": "nonpayable",
      "type": "function"
    },
    {
      "inputs": [],
      "name": "tokenTransfererImpl",
      "outputs": [
        {
          "internalType": "address",
          "name": "",
          "type": "address"
        }
      ],
      "stateMutability": "view",
      "type": "function"
    },
    {
      "inputs": [
        {
          "internalType": "address",
          "name": "_newOwner",
          "type": "address"
        }
      ],
      "name": "transferOwnership",
      "outputs": [],
      "stateMutability": "nonpayable",
      "type": "function"
    },
    {
      "inputs": [
        {
          "internalType": "string",
          "name": "",
          "type": "string"
        },
        {
          "internalType": "uint256",
          "name": "",
          "type": "uint256"
        }
      ],
      "name": "userIdToAddresses",
      "outputs": [
        {
          "internalType": "address",
          "name": "",
          "type": "address"
        }
      ],
      "stateMutability": "view",
      "type": "function"
    }
  ],
  "bytecode": "0x608060405234801561001057600080fd5b50604051610c50380380610c5083398101604081905261002f9161012d565b6001600160a01b03821661007f5760405162461bcd60e51b8152602060048201526012602482015271125b9d985b1a59081a1bdd081dd85b1b195d60721b60448201526064015b60405180910390fd5b6001600160a01b0381166100d55760405162461bcd60e51b815260206004820152601860248201527f496e76616c696420746f6b656e207472616e73666572657200000000000000006044820152606401610076565b600080546001600160a01b03199081163317909155600180546001600160a01b0394851690831617905560028054929093169116179055610160565b80516001600160a01b038116811461012857600080fd5b919050565b6000806040838503121561014057600080fd5b61014983610111565b915061015760208401610111565b90509250929050565b610ae18061016f6000396000f3fe608060405234801561001057600080fd5b506004361061009e5760003560e01c80639fb755d7116100665780639fb755d714610132578063b5ffbbcc14610145578063cc01e49314610165578063ee3250b214610178578063f2fde38b1461018b57600080fd5b80632183f363146100a357806329113bc8146100cc5780637c9c6833146100f75780638da3e3481461010c5780638da5cb5b1461011f575b600080fd5b6100b66100b13660046106dd565b61019e565b6040516100c3919061071f565b60405180910390f35b6001546100df906001600160a01b031681565b6040516001600160a01b0390911681526020016100c3565b61010a610105366004610788565b61021b565b005b6100df61011a3660046107f2565b61039b565b6000546100df906001600160a01b031681565b61010a6101403660046108a7565b6103e2565b6101586101533660046108a7565b6104a1565b6040516100c391906108c9565b61010a6101733660046108a7565b61053b565b6002546100df906001600160a01b031681565b61010a6101993660046108a7565b6105fe565b6060600483836040516101b2929190610918565b908152604080519182900360209081018320805480830285018301909352828452919083018282801561020e57602002820191906000526020600020905b81546001600160a01b031681526001909101906020018083116101f0575b5050505050905092915050565b6000546001600160a01b0316331461024e5760405162461bcd60e51b815260040161024590610928565b60405180910390fd5b6001600160a01b0381166102a45760405162461bcd60e51b815260206004820152601760248201527f496e76616c6964207061796d656e7420616464726573730000000000000000006044820152606401610245565b816102e35760405162461bcd60e51b815260206004820152600f60248201526e125b9d985b1a59081d5cd95c881251608a1b6044820152606401610245565b6001600160a01b03811660009081526003602052604090206103068385836109ea565b5060048383604051610319929190610918565b9081526040519081900360209081018220805460018101825560009182529190200180546001600160a01b0384166001600160a01b03199091168117909155906103669085908590610918565b604051908190038120907f0138171338a2088909c8d6f213539f58fb11faa24ecd3aa0d781b03cad73baeb90600090a3505050565b815160208184018101805160048252928201918501919091209190528054829081106103c657600080fd5b6000918252602090912001546001600160a01b03169150829050565b6000546001600160a01b0316331461040c5760405162461bcd60e51b815260040161024590610928565b6001600160a01b0381166104575760405162461bcd60e51b8152602060048201526012602482015271125b9d985b1a59081a1bdd081dd85b1b195d60721b6044820152606401610245565b600180546001600160a01b0319166001600160a01b0383169081179091556040517ff8a6f801d578b9c2a3c26203e722959e056edba91c6926355464cc2314f3656390600090a250565b600360205260009081526040902080546104ba9061095f565b80601f01602080910402602001604051908101604052809291908181526020018280546104e69061095f565b80156105335780601f1061050857610100808354040283529160200191610533565b820191906000526020600020905b81548152906001019060200180831161051657829003601f168201915b505050505081565b6000546001600160a01b031633146105655760405162461bcd60e51b815260040161024590610928565b6001600160a01b0381166105b45760405162461bcd60e51b815260206004820152601660248201527524b73b30b634b21034b6b83632b6b2b73a30ba34b7b760511b6044820152606401610245565b600280546001600160a01b0319166001600160a01b0383169081179091556040517f5949d92fd12baa8f6c7cb02ef313650487f57c3fde44c520a7762b30709e053e90600090a250565b6000546001600160a01b031633146106285760405162461bcd60e51b815260040161024590610928565b6001600160a01b0381166106725760405162461bcd60e51b815260206004820152601160248201527024b73b30b634b2103732bb9037bbb732b960791b6044820152606401610245565b600080546001600160a01b0319166001600160a01b0392909216919091179055565b60008083601f8401126106a657600080fd5b50813567ffffffffffffffff8111156106be57600080fd5b6020830191508360208285010111156106d657600080fd5b9250929050565b600080602083850312156106f057600080fd5b823567ffffffffffffffff81111561070757600080fd5b61071385828601610694565b90969095509350505050565b6020808252825182820181905260009190848201906040850190845b818110156107605783516001600160a01b03168352928401929184019160010161073b565b50909695505050505050565b80356001600160a01b038116811461078357600080fd5b919050565b60008060006040848603121561079d57600080fd5b833567ffffffffffffffff8111156107b457600080fd5b6107c086828701610694565b90945092506107d390506020850161076c565b90509250925092565b634e487b7160e01b600052604160045260246000fd5b6000806040838503121561080557600080fd5b823567ffffffffffffffff8082111561081d57600080fd5b818501915085601f83011261083157600080fd5b813581811115610843576108436107dc565b604051601f8201601f19908116603f0116810190838211818310171561086b5761086b6107dc565b8160405282815288602084870101111561088457600080fd5b826020860160208301376000602093820184015298969091013596505050505050565b6000602082840312156108b957600080fd5b6108c28261076c565b9392505050565b60006020808352835180602085015260005b818110156108f7578581018301518582016040015282016108db565b506000604082860101526040601f19601f8301168501019250505092915050565b8183823760009101908152919050565b60208082526018908201527f4f6e6c79206f776e65722063616e2063616c6c20746869730000000000000000604082015260600190565b600181811c9082168061097357607f821691505b60208210810361099357634e487b7160e01b600052602260045260246000fd5b50919050565b601f8211156109e5576000816000526020600020601f850160051c810160208610156109c25750805b601f850160051c820191505b818110156109e1578281556001016109ce565b5050505b505050565b67ffffffffffffffff831115610a0257610a026107dc565b610a1683610a10835461095f565b83610999565b6000601f841160018114610a4a5760008515610a325750838201355b600019600387901b1c1916600186901b178355610aa4565b600083815260209020601f19861690835b82811015610a7b5786850135825560209485019460019092019101610a5b565b5086821015610a985760001960f88860031b161c19848701351681555b505060018560011b0183555b505050505056fea26469706673582212200d49bbe4bd958558f9df39b35b48d22f394b4eb473e8c5b2b34fc5de6436d2ee64736f6c63430008180033",
  "linkReferences": {},
  "deployedLinkReferences": {}
}