{
  "_format": "hh-sol-artifact-1",
  "contractName": "TokenTransferer",
  "sourceName": "contracts/TokenTransferer.sol",
  "abi": [
    {
      "inputs": [
        {
          "internalType": "address",
          "name": "token",
          "type": "address"
        },
        {
          "internalType": "address",
          "name": "recipient",
          "type": "address"
        }
      ],
      "name": "transfer",
      "outputs": [],
      "stateMutability": "nonpayable",
      "type": "function"
    },
    {
      "inputs": [
        {
          "internalType": "address[]",
          "name": "tokens",
          "type": "address[]"
        },
        {
          "internalType": "address",
          "name": "recipient",
          "type": "address"
        }
      ],
      "name": "transferMultiple",
      "outputs": [],
      "stateMutability": "nonpayable",
      "type": "function"
    },
    {
      "stateMutability": "payable",
      "type": "receive"
    }
  ],
  "bytecode": "0x608060405234801561001057600080fd5b5061066b806100206000396000f3fe60806040526004361061002d5760003560e01c80631fadedc514610039578063ba45b0b81461005b57600080fd5b3661003457005b600080fd5b34801561004557600080fd5b5061005961005436600461050b565b61007b565b005b34801561006757600080fd5b5061005961007636600461058f565b6102dc565b6001600160a01b0381166100d25760405162461bcd60e51b8152602060048201526019602482015278496e76616c696420726563697069656e74206164647265737360381b60448201526064015b60405180910390fd5b816101155760405162461bcd60e51b8152602060048201526013602482015272139bc81d1bdad95b9cc81cdc1958da599a5959606a1b60448201526064016100c9565b60005b828110156102d6576000848483818110610134576101346105c2565b905060200201602081019061014991906105d8565b90506001600160a01b0381166101995760405162461bcd60e51b8152602060048201526015602482015274496e76616c696420746f6b656e206164647265737360581b60448201526064016100c9565b6040516370a0823160e01b81523060048201526000906001600160a01b038316906370a0823190602401602060405180830381865afa1580156101e0573d6000803e3d6000fd5b505050506040513d601f19601f8201168201806040525081019061020491906105fa565b905080156102cc5760405163a9059cbb60e01b81526001600160a01b038581166004830152602482018390526000919084169063a9059cbb906044016020604051808303816000875af115801561025f573d6000803e3d6000fd5b505050506040513d601f19601f820116820180604052508101906102839190610613565b9050806102ca5760405162461bcd60e51b8152602060048201526015602482015274151bdad95b881d1c985b9cd9995c8819985a5b1959605a1b60448201526064016100c9565b505b5050600101610118565b50505050565b6001600160a01b03821661032a5760405162461bcd60e51b8152602060048201526015602482015274496e76616c696420746f6b656e206164647265737360581b60448201526064016100c9565b6001600160a01b03811661037c5760405162461bcd60e51b8152602060048201526019602482015278496e76616c696420726563697069656e74206164647265737360381b60448201526064016100c9565b6040516370a0823160e01b81523060048201526000906001600160a01b038416906370a0823190602401602060405180830381865afa1580156103c3573d6000803e3d6000fd5b505050506040513d601f19601f820116820180604052508101906103e791906105fa565b9050600081116104315760405162461bcd60e51b81526020600482015260156024820152742737903a37b5b2b739903a37903a3930b739b332b960591b60448201526064016100c9565b60405163a9059cbb60e01b81526001600160a01b038381166004830152602482018390526000919085169063a9059cbb906044016020604051808303816000875af1158015610484573d6000803e3d6000fd5b505050506040513d601f19601f820116820180604052508101906104a89190610613565b9050806102d65760405162461bcd60e51b8152602060048201526015602482015274151bdad95b881d1c985b9cd9995c8819985a5b1959605a1b60448201526064016100c9565b80356001600160a01b038116811461050657600080fd5b919050565b60008060006040848603121561052057600080fd5b833567ffffffffffffffff8082111561053857600080fd5b818601915086601f83011261054c57600080fd5b81358181111561055b57600080fd5b8760208260051b850101111561057057600080fd5b60209283019550935061058691860190506104ef565b90509250925092565b600080604083850312156105a257600080fd5b6105ab836104ef565b91506105b9602084016104ef565b90509250929050565b634e487b7160e01b600052603260045260246000fd5b6000602082840312156105ea57600080fd5b6105f3826104ef565b9392505050565b60006020828403121561060c57600080fd5b5051919050565b60006020828403121561062557600080fd5b815180151581146105f357600080fdfea2646970667358221220b67d4602aed5010b9e1dd4f6ac8b74b0162c40eead777757f488ac485bab07bd64736f6c63430008180033",
  "linkReferences": {},
  "deployedLinkReferences": {}
}